{
  "_format": "hh-sol-artifact-1",
  "contractName": "NFTMarketplace",
  "sourceName": "contracts/NFTMarketplace.sol",
  "abi": [
    {
      "inputs": [
        {
          "internalType": "address",
          "name": "_nftToken",
          "type": "address"
        }
      ],
      "stateMutability": "nonpayable",
      "type": "constructor"
    },
    {
      "anonymous": false,
      "inputs": [
        {
          "indexed": true,
          "internalType": "address",
          "name": "owner",
          "type": "address"
        },
        {
          "indexed": true,
          "internalType": "address",
          "name": "approved",
          "type": "address"
        },
        {
          "indexed": true,
          "internalType": "uint256",
          "name": "tokenId",
          "type": "uint256"
        }
      ],
      "name": "Approval",
      "type": "event"
    },
    {
      "anonymous": false,
      "inputs": [
        {
          "indexed": true,
          "internalType": "address",
          "name": "owner",
          "type": "address"
        },
        {
          "indexed": true,
          "internalType": "address",
          "name": "operator",
          "type": "address"
        },
        {
          "indexed": false,
          "internalType": "bool",
          "name": "approved",
          "type": "bool"
        }
      ],
      "name": "ApprovalForAll",
      "type": "event"
    },
    {
      "anonymous": false,
      "inputs": [
        {
          "indexed": true,
          "internalType": "uint256",
          "name": "tokenId",
          "type": "uint256"
        },
        {
          "indexed": true,
          "internalType": "address",
          "name": "bidder",
          "type": "address"
        },
        {
          "indexed": false,
          "internalType": "uint256",
          "name": "value",
          "type": "uint256"
        }
      ],
      "name": "BidPlaced",
      "type": "event"
    },
    {
      "anonymous": false,
      "inputs": [
        {
          "indexed": true,
          "internalType": "uint256",
          "name": "tokenId",
          "type": "uint256"
        },
        {
          "indexed": true,
          "internalType": "address",
          "name": "seller",
          "type": "address"
        },
        {
          "indexed": true,
          "internalType": "address",
          "name": "owner",
          "type": "address"
        },
        {
          "indexed": false,
          "internalType": "uint256",
          "name": "price",
          "type": "uint256"
        },
        {
          "indexed": false,
          "internalType": "bool",
          "name": "sold",
          "type": "bool"
        },
        {
          "indexed": false,
          "internalType": "uint256",
          "name": "highestBid",
          "type": "uint256"
        },
        {
          "indexed": false,
          "internalType": "address",
          "name": "highestBidder",
          "type": "address"
        },
        {
          "indexed": false,
          "internalType": "uint256",
          "name": "startAuctionTime",
          "type": "uint256"
        }
      ],
      "name": "MarketItemCreated",
      "type": "event"
    },
    {
      "anonymous": false,
      "inputs": [
        {
          "indexed": true,
          "internalType": "address",
          "name": "previousOwner",
          "type": "address"
        },
        {
          "indexed": true,
          "internalType": "address",
          "name": "newOwner",
          "type": "address"
        }
      ],
      "name": "OwnershipTransferred",
      "type": "event"
    },
    {
      "anonymous": false,
      "inputs": [
        {
          "indexed": true,
          "internalType": "address",
          "name": "from",
          "type": "address"
        },
        {
          "indexed": true,
          "internalType": "address",
          "name": "to",
          "type": "address"
        },
        {
          "indexed": true,
          "internalType": "uint256",
          "name": "tokenId",
          "type": "uint256"
        }
      ],
      "name": "Transfer",
      "type": "event"
    },
    {
      "inputs": [
        {
          "internalType": "address",
          "name": "to",
          "type": "address"
        },
        {
          "internalType": "uint256",
          "name": "tokenId",
          "type": "uint256"
        }
      ],
      "name": "approve",
      "outputs": [],
      "stateMutability": "nonpayable",
      "type": "function"
    },
    {
      "inputs": [
        {
          "internalType": "address",
          "name": "owner",
          "type": "address"
        }
      ],
      "name": "balanceOf",
      "outputs": [
        {
          "internalType": "uint256",
          "name": "",
          "type": "uint256"
        }
      ],
      "stateMutability": "view",
      "type": "function"
    },
    {
      "inputs": [
        {
          "internalType": "uint256",
          "name": "tokenId",
          "type": "uint256"
        }
      ],
      "name": "createMarketSale",
      "outputs": [],
      "stateMutability": "payable",
      "type": "function"
    },
    {
      "inputs": [
        {
          "internalType": "string",
          "name": "tokenURI",
          "type": "string"
        },
        {
          "internalType": "uint256",
          "name": "startPrice",
          "type": "uint256"
        }
      ],
      "name": "createToken",
      "outputs": [
        {
          "internalType": "uint256",
          "name": "",
          "type": "uint256"
        }
      ],
      "stateMutability": "payable",
      "type": "function"
    },
    {
      "inputs": [],
      "name": "duration",
      "outputs": [
        {
          "internalType": "uint256",
          "name": "",
          "type": "uint256"
        }
      ],
      "stateMutability": "view",
      "type": "function"
    },
    {
      "inputs": [],
      "name": "fetchItemsListed",
      "outputs": [
        {
          "components": [
            {
              "internalType": "uint256",
              "name": "tokenId",
              "type": "uint256"
            },
            {
              "internalType": "address payable",
              "name": "originalCreator",
              "type": "address"
            },
            {
              "internalType": "address payable",
              "name": "previousOwner",
              "type": "address"
            },
            {
              "internalType": "address payable",
              "name": "seller",
              "type": "address"
            },
            {
              "internalType": "address payable",
              "name": "owner",
              "type": "address"
            },
            {
              "internalType": "uint256",
              "name": "price",
              "type": "uint256"
            },
            {
              "internalType": "bool",
              "name": "sold",
              "type": "bool"
            },
            {
              "internalType": "uint256",
              "name": "highestBid",
              "type": "uint256"
            },
            {
              "internalType": "address",
              "name": "highestBidder",
              "type": "address"
            },
            {
              "internalType": "uint256",
              "name": "startAuctionTime",
              "type": "uint256"
            }
          ],
          "internalType": "struct NFTMarketplace.MarketItem[]",
          "name": "",
          "type": "tuple[]"
        }
      ],
      "stateMutability": "view",
      "type": "function"
    },
    {
      "inputs": [],
      "name": "fetchMarketItems",
      "outputs": [
        {
          "components": [
            {
              "internalType": "uint256",
              "name": "tokenId",
              "type": "uint256"
            },
            {
              "internalType": "address payable",
              "name": "originalCreator",
              "type": "address"
            },
            {
              "internalType": "address payable",
              "name": "previousOwner",
              "type": "address"
            },
            {
              "internalType": "address payable",
              "name": "seller",
              "type": "address"
            },
            {
              "internalType": "address payable",
              "name": "owner",
              "type": "address"
            },
            {
              "internalType": "uint256",
              "name": "price",
              "type": "uint256"
            },
            {
              "internalType": "bool",
              "name": "sold",
              "type": "bool"
            },
            {
              "internalType": "uint256",
              "name": "highestBid",
              "type": "uint256"
            },
            {
              "internalType": "address",
              "name": "highestBidder",
              "type": "address"
            },
            {
              "internalType": "uint256",
              "name": "startAuctionTime",
              "type": "uint256"
            }
          ],
          "internalType": "struct NFTMarketplace.MarketItem[]",
          "name": "",
          "type": "tuple[]"
        }
      ],
      "stateMutability": "view",
      "type": "function"
    },
    {
      "inputs": [],
      "name": "fetchMyNFTs",
      "outputs": [
        {
          "components": [
            {
              "internalType": "uint256",
              "name": "tokenId",
              "type": "uint256"
            },
            {
              "internalType": "address payable",
              "name": "originalCreator",
              "type": "address"
            },
            {
              "internalType": "address payable",
              "name": "previousOwner",
              "type": "address"
            },
            {
              "internalType": "address payable",
              "name": "seller",
              "type": "address"
            },
            {
              "internalType": "address payable",
              "name": "owner",
              "type": "address"
            },
            {
              "internalType": "uint256",
              "name": "price",
              "type": "uint256"
            },
            {
              "internalType": "bool",
              "name": "sold",
              "type": "bool"
            },
            {
              "internalType": "uint256",
              "name": "highestBid",
              "type": "uint256"
            },
            {
              "internalType": "address",
              "name": "highestBidder",
              "type": "address"
            },
            {
              "internalType": "uint256",
              "name": "startAuctionTime",
              "type": "uint256"
            }
          ],
          "internalType": "struct NFTMarketplace.MarketItem[]",
          "name": "",
          "type": "tuple[]"
        }
      ],
      "stateMutability": "view",
      "type": "function"
    },
    {
      "inputs": [
        {
          "internalType": "uint256",
          "name": "tokenId",
          "type": "uint256"
        }
      ],
      "name": "getApproved",
      "outputs": [
        {
          "internalType": "address",
          "name": "",
          "type": "address"
        }
      ],
      "stateMutability": "view",
      "type": "function"
    },
    {
      "inputs": [],
      "name": "getListingPrice",
      "outputs": [
        {
          "internalType": "uint256",
          "name": "",
          "type": "uint256"
        }
      ],
      "stateMutability": "view",
      "type": "function"
    },
    {
      "inputs": [
        {
          "internalType": "uint256",
          "name": "",
          "type": "uint256"
        }
      ],
      "name": "idToMarketItem",
      "outputs": [
        {
          "internalType": "uint256",
          "name": "tokenId",
          "type": "uint256"
        },
        {
          "internalType": "address payable",
          "name": "originalCreator",
          "type": "address"
        },
        {
          "internalType": "address payable",
          "name": "previousOwner",
          "type": "address"
        },
        {
          "internalType": "address payable",
          "name": "seller",
          "type": "address"
        },
        {
          "internalType": "address payable",
          "name": "owner",
          "type": "address"
        },
        {
          "internalType": "uint256",
          "name": "price",
          "type": "uint256"
        },
        {
          "internalType": "bool",
          "name": "sold",
          "type": "bool"
        },
        {
          "internalType": "uint256",
          "name": "highestBid",
          "type": "uint256"
        },
        {
          "internalType": "address",
          "name": "highestBidder",
          "type": "address"
        },
        {
          "internalType": "uint256",
          "name": "startAuctionTime",
          "type": "uint256"
        }
      ],
      "stateMutability": "view",
      "type": "function"
    },
    {
      "inputs": [
        {
          "internalType": "address",
          "name": "owner",
          "type": "address"
        },
        {
          "internalType": "address",
          "name": "operator",
          "type": "address"
        }
      ],
      "name": "isApprovedForAll",
      "outputs": [
        {
          "internalType": "bool",
          "name": "",
          "type": "bool"
        }
      ],
      "stateMutability": "view",
      "type": "function"
    },
    {
      "inputs": [],
      "name": "listingPrice",
      "outputs": [
        {
          "internalType": "uint256",
          "name": "",
          "type": "uint256"
        }
      ],
      "stateMutability": "view",
      "type": "function"
    },
    {
      "inputs": [],
      "name": "name",
      "outputs": [
        {
          "internalType": "string",
          "name": "",
          "type": "string"
        }
      ],
      "stateMutability": "view",
      "type": "function"
    },
    {
      "inputs": [],
      "name": "nftToken",
      "outputs": [
        {
          "internalType": "contract ERC20",
          "name": "",
          "type": "address"
        }
      ],
      "stateMutability": "view",
      "type": "function"
    },
    {
      "inputs": [],
      "name": "owner",
      "outputs": [
        {
          "internalType": "address",
          "name": "",
          "type": "address"
        }
      ],
      "stateMutability": "view",
      "type": "function"
    },
    {
      "inputs": [
        {
          "internalType": "uint256",
          "name": "tokenId",
          "type": "uint256"
        }
      ],
      "name": "ownerOf",
      "outputs": [
        {
          "internalType": "address",
          "name": "",
          "type": "address"
        }
      ],
      "stateMutability": "view",
      "type": "function"
    },
    {
      "inputs": [
        {
          "internalType": "uint256",
          "name": "tokenId",
          "type": "uint256"
        }
      ],
      "name": "placeBid",
      "outputs": [],
      "stateMutability": "payable",
      "type": "function"
    },
    {
      "inputs": [],
      "name": "renounceOwnership",
      "outputs": [],
      "stateMutability": "nonpayable",
      "type": "function"
    },
    {
      "inputs": [],
      "name": "rewardsForListing",
      "outputs": [
        {
          "internalType": "uint256",
          "name": "",
          "type": "uint256"
        }
      ],
      "stateMutability": "view",
      "type": "function"
    },
    {
      "inputs": [],
      "name": "royaltyPercentage",
      "outputs": [
        {
          "internalType": "uint256",
          "name": "",
          "type": "uint256"
        }
      ],
      "stateMutability": "view",
      "type": "function"
    },
    {
      "inputs": [
        {
          "internalType": "address",
          "name": "from",
          "type": "address"
        },
        {
          "internalType": "address",
          "name": "to",
          "type": "address"
        },
        {
          "internalType": "uint256",
          "name": "tokenId",
          "type": "uint256"
        }
      ],
      "name": "safeTransferFrom",
      "outputs": [],
      "stateMutability": "nonpayable",
      "type": "function"
    },
    {
      "inputs": [
        {
          "internalType": "address",
          "name": "from",
          "type": "address"
        },
        {
          "internalType": "address",
          "name": "to",
          "type": "address"
        },
        {
          "internalType": "uint256",
          "name": "tokenId",
          "type": "uint256"
        },
        {
          "internalType": "bytes",
          "name": "data",
          "type": "bytes"
        }
      ],
      "name": "safeTransferFrom",
      "outputs": [],
      "stateMutability": "nonpayable",
      "type": "function"
    },
    {
      "inputs": [
        {
          "internalType": "address",
          "name": "operator",
          "type": "address"
        },
        {
          "internalType": "bool",
          "name": "approved",
          "type": "bool"
        }
      ],
      "name": "setApprovalForAll",
      "outputs": [],
      "stateMutability": "nonpayable",
      "type": "function"
    },
    {
      "inputs": [
        {
          "internalType": "bytes4",
          "name": "interfaceId",
          "type": "bytes4"
        }
      ],
      "name": "supportsInterface",
      "outputs": [
        {
          "internalType": "bool",
          "name": "",
          "type": "bool"
        }
      ],
      "stateMutability": "view",
      "type": "function"
    },
    {
      "inputs": [],
      "name": "symbol",
      "outputs": [
        {
          "internalType": "string",
          "name": "",
          "type": "string"
        }
      ],
      "stateMutability": "view",
      "type": "function"
    },
    {
      "inputs": [
        {
          "internalType": "uint256",
          "name": "tokenId",
          "type": "uint256"
        }
      ],
      "name": "tokenURI",
      "outputs": [
        {
          "internalType": "string",
          "name": "",
          "type": "string"
        }
      ],
      "stateMutability": "view",
      "type": "function"
    },
    {
      "inputs": [
        {
          "internalType": "address",
          "name": "from",
          "type": "address"
        },
        {
          "internalType": "address",
          "name": "to",
          "type": "address"
        },
        {
          "internalType": "uint256",
          "name": "tokenId",
          "type": "uint256"
        }
      ],
      "name": "transferFrom",
      "outputs": [],
      "stateMutability": "nonpayable",
      "type": "function"
    },
    {
      "inputs": [
        {
          "internalType": "address",
          "name": "newOwner",
          "type": "address"
        }
      ],
      "name": "transferOwnership",
      "outputs": [],
      "stateMutability": "nonpayable",
      "type": "function"
    },
    {
      "inputs": [
        {
          "internalType": "uint256",
          "name": "_listingPrice",
          "type": "uint256"
        }
      ],
      "name": "updateListingPrice",
      "outputs": [],
      "stateMutability": "nonpayable",
      "type": "function"
    },
    {
      "inputs": [
        {
          "internalType": "uint256",
          "name": "_rewardsForListing",
          "type": "uint256"
        }
      ],
      "name": "updateRewardsForListing",
      "outputs": [],
      "stateMutability": "nonpayable",
      "type": "function"
    },
    {
      "inputs": [
        {
          "internalType": "uint256",
          "name": "_royaltyPercentage",
          "type": "uint256"
        }
      ],
      "name": "updateRoyaltyPercentage",
      "outputs": [],
      "stateMutability": "nonpayable",
      "type": "function"
    }
  ],
  "bytecode": "0x60806040526658d15e17628000600d5561012c600e556002600f55670de0b6b3a76400006010553480156200003357600080fd5b50604051620057cf380380620057cf8339818101604052810190620000599190620002d4565b6040518060400160405280601081526020017f4e4654204d61726b657420546f6b656e000000000000000000000000000000008152506040518060400160405280600481526020017f4e465454000000000000000000000000000000000000000000000000000000008152508160009081620000d6919062000580565b508060019081620000e8919062000580565b505050600160078190555062000113620001076200019c60201b60201c565b620001a460201b60201c565b33600b60006101000a81548173ffffffffffffffffffffffffffffffffffffffff021916908373ffffffffffffffffffffffffffffffffffffffff16021790555080600c60006101000a81548173ffffffffffffffffffffffffffffffffffffffff021916908373ffffffffffffffffffffffffffffffffffffffff1602179055505062000667565b600033905090565b6000600860009054906101000a900473ffffffffffffffffffffffffffffffffffffffff16905081600860006101000a81548173ffffffffffffffffffffffffffffffffffffffff021916908373ffffffffffffffffffffffffffffffffffffffff1602179055508173ffffffffffffffffffffffffffffffffffffffff168173ffffffffffffffffffffffffffffffffffffffff167f8be0079c531659141344cd1fd0a4f28419497f9722a3daafe3b4186f6b6457e060405160405180910390a35050565b600080fd5b600073ffffffffffffffffffffffffffffffffffffffff82169050919050565b60006200029c826200026f565b9050919050565b620002ae816200028f565b8114620002ba57600080fd5b50565b600081519050620002ce81620002a3565b92915050565b600060208284031215620002ed57620002ec6200026a565b5b6000620002fd84828501620002bd565b91505092915050565b600081519050919050565b7f4e487b7100000000000000000000000000000000000000000000000000000000600052604160045260246000fd5b7f4e487b7100000000000000000000000000000000000000000000000000000000600052602260045260246000fd5b600060028204905060018216806200038857607f821691505b6020821081036200039e576200039d62000340565b5b50919050565b60008190508160005260206000209050919050565b60006020601f8301049050919050565b600082821b905092915050565b600060088302620004087fffffffffffffffffffffffffffffffffffffffffffffffffffffffffffffffff82620003c9565b620004148683620003c9565b95508019841693508086168417925050509392505050565b6000819050919050565b6000819050919050565b6000620004616200045b62000455846200042c565b62000436565b6200042c565b9050919050565b6000819050919050565b6200047d8362000440565b620004956200048c8262000468565b848454620003d6565b825550505050565b600090565b620004ac6200049d565b620004b981848462000472565b505050565b5b81811015620004e157620004d5600082620004a2565b600181019050620004bf565b5050565b601f8211156200053057620004fa81620003a4565b6200050584620003b9565b8101602085101562000515578190505b6200052d6200052485620003b9565b830182620004be565b50505b505050565b600082821c905092915050565b6000620005556000198460080262000535565b1980831691505092915050565b600062000570838362000542565b9150826002028217905092915050565b6200058b8262000306565b67ffffffffffffffff811115620005a757620005a662000311565b5b620005b382546200036f565b620005c0828285620004e5565b600060209050601f831160018114620005f85760008415620005e3578287015190505b620005ef858262000562565b8655506200065f565b601f1984166200060886620003a4565b60005b8281101562000632578489015182556001820191506020850194506020810190506200060b565b868310156200065257848901516200064e601f89168262000542565b8355505b6001600288020188555050505b505050505050565b61515880620006776000396000f3fe6080604052600436106101e35760003560e01c8063715018a611610102578063b88d4fde11610095578063d06fcba811610064578063d06fcba8146106b9578063e61a70c0146106e4578063e985e9c51461072a578063f2fde38b14610767576101e3565b8063b88d4fde1461060c578063be9af53614610635578063c78f19f914610651578063c87b56dd1461067c576101e3565b806395d89b41116100d157806395d89b41146105735780639979ef451461059e578063a22cb465146105ba578063ae677aa3146105e3576101e3565b8063715018a6146104d657806372b3b620146104ed5780638a71bb2d1461051d5780638da5cb5b14610548576101e3565b806321e37aca1161017a5780635e269e7b116101495780635e269e7b1461040a578063621bb669146104335780636352211e1461045c57806370a0823114610499576101e3565b806321e37aca1461036257806323b872dd1461038d57806342842e0e146103b657806345f8fa80146103df576101e3565b80630f08efe0116101b65780630f08efe0146102b65780630fb5a6b4146102e157806312e855851461030c578063202e374014610337576101e3565b806301ffc9a7146101e857806306fdde0314610225578063081812fc14610250578063095ea7b31461028d575b600080fd5b3480156101f457600080fd5b5061020f600480360381019061020a919061369d565b610790565b60405161021c91906136e5565b60405180910390f35b34801561023157600080fd5b5061023a610872565b6040516102479190613790565b60405180910390f35b34801561025c57600080fd5b50610277600480360381019061027291906137e8565b610904565b6040516102849190613856565b60405180910390f35b34801561029957600080fd5b506102b460048036038101906102af919061389d565b61094a565b005b3480156102c257600080fd5b506102cb610a61565b6040516102d89190613aa7565b60405180910390f35b3480156102ed57600080fd5b506102f6610de0565b6040516103039190613ad8565b60405180910390f35b34801561031857600080fd5b50610321610de6565b60405161032e9190613ad8565b60405180910390f35b34801561034357600080fd5b5061034c610df0565b6040516103599190613aa7565b60405180910390f35b34801561036e57600080fd5b506103776111f3565b6040516103849190613ad8565b60405180910390f35b34801561039957600080fd5b506103b460048036038101906103af9190613af3565b6111f9565b005b3480156103c257600080fd5b506103dd60048036038101906103d89190613af3565b611259565b005b3480156103eb57600080fd5b506103f4611279565b6040516104019190613aa7565b60405180910390f35b34801561041657600080fd5b50610431600480360381019061042c91906137e8565b61167c565b005b34801561043f57600080fd5b5061045a600480360381019061045591906137e8565b61168e565b005b34801561046857600080fd5b50610483600480360381019061047e91906137e8565b6116a0565b6040516104909190613856565b60405180910390f35b3480156104a557600080fd5b506104c060048036038101906104bb9190613b46565b611751565b6040516104cd9190613ad8565b60405180910390f35b3480156104e257600080fd5b506104eb611808565b005b61050760048036038101906105029190613ca8565b61181c565b6040516105149190613ad8565b60405180910390f35b34801561052957600080fd5b50610532611c8e565b60405161053f9190613ad8565b60405180910390f35b34801561055457600080fd5b5061055d611c94565b60405161056a9190613856565b60405180910390f35b34801561057f57600080fd5b50610588611cbe565b6040516105959190613790565b60405180910390f35b6105b860048036038101906105b391906137e8565b611d50565b005b3480156105c657600080fd5b506105e160048036038101906105dc9190613d30565b611f72565b005b3480156105ef57600080fd5b5061060a600480360381019061060591906137e8565b611f88565b005b34801561061857600080fd5b50610633600480360381019061062e9190613e11565b611f9a565b005b61064f600480360381019061064a91906137e8565b611ffc565b005b34801561065d57600080fd5b506106666123f0565b6040516106739190613ad8565b60405180910390f35b34801561068857600080fd5b506106a3600480360381019061069e91906137e8565b6123f6565b6040516106b09190613790565b60405180910390f35b3480156106c557600080fd5b506106ce612508565b6040516106db9190613ef3565b60405180910390f35b3480156106f057600080fd5b5061070b600480360381019061070691906137e8565b61252e565b6040516107219a99989796959493929190613f1d565b60405180910390f35b34801561073657600080fd5b50610751600480360381019061074c9190613fb9565b61262f565b60405161075e91906136e5565b60405180910390f35b34801561077357600080fd5b5061078e60048036038101906107899190613b46565b6126c3565b005b60007f80ac58cd000000000000000000000000000000000000000000000000000000007bffffffffffffffffffffffffffffffffffffffffffffffffffffffff1916827bffffffffffffffffffffffffffffffffffffffffffffffffffffffff1916148061085b57507f5b5e139f000000000000000000000000000000000000000000000000000000007bffffffffffffffffffffffffffffffffffffffffffffffffffffffff1916827bffffffffffffffffffffffffffffffffffffffffffffffffffffffff1916145b8061086b575061086a82612746565b5b9050919050565b60606000805461088190614028565b80601f01602080910402602001604051908101604052809291908181526020018280546108ad90614028565b80156108fa5780601f106108cf576101008083540402835291602001916108fa565b820191906000526020600020905b8154815290600101906020018083116108dd57829003601f168201915b5050505050905090565b600061090f826127b0565b6004600083815260200190815260200160002060009054906101000a900473ffffffffffffffffffffffffffffffffffffffff169050919050565b6000610955826116a0565b90508073ffffffffffffffffffffffffffffffffffffffff168373ffffffffffffffffffffffffffffffffffffffff16036109c5576040517f08c379a00000000000000000000000000000000000000000000000000000000081526004016109bc906140cb565b60405180910390fd5b8073ffffffffffffffffffffffffffffffffffffffff166109e46127fb565b73ffffffffffffffffffffffffffffffffffffffff161480610a135750610a1281610a0d6127fb565b61262f565b5b610a52576040517f08c379a0000000000000000000000000000000000000000000000000000000008152600401610a499061415d565b60405180910390fd5b610a5c8383612803565b505050565b60606000610a6f60096128bc565b90506000610a7d600a6128bc565b610a8760096128bc565b610a9191906141ac565b90506000808267ffffffffffffffff811115610ab057610aaf613b7d565b5b604051908082528060200260200182016040528015610ae957816020015b610ad661356e565b815260200190600190039081610ace5790505b50905060005b84811015610dd5573073ffffffffffffffffffffffffffffffffffffffff1660116000600184610b1f91906141e0565b815260200190815260200160002060040160009054906101000a900473ffffffffffffffffffffffffffffffffffffffff1673ffffffffffffffffffffffffffffffffffffffff1603610dc2576000600182610b7b91906141e0565b905060006011600083815260200190815260200160002090508060405180610140016040529081600082015481526020016001820160009054906101000a900473ffffffffffffffffffffffffffffffffffffffff1673ffffffffffffffffffffffffffffffffffffffff1673ffffffffffffffffffffffffffffffffffffffff1681526020016002820160009054906101000a900473ffffffffffffffffffffffffffffffffffffffff1673ffffffffffffffffffffffffffffffffffffffff1673ffffffffffffffffffffffffffffffffffffffff1681526020016003820160009054906101000a900473ffffffffffffffffffffffffffffffffffffffff1673ffffffffffffffffffffffffffffffffffffffff1673ffffffffffffffffffffffffffffffffffffffff1681526020016004820160009054906101000a900473ffffffffffffffffffffffffffffffffffffffff1673ffffffffffffffffffffffffffffffffffffffff1673ffffffffffffffffffffffffffffffffffffffff168152602001600582015481526020016006820160009054906101000a900460ff16151515158152602001600782015481526020016008820160009054906101000a900473ffffffffffffffffffffffffffffffffffffffff1673ffffffffffffffffffffffffffffffffffffffff1673ffffffffffffffffffffffffffffffffffffffff168152602001600982015481525050848681518110610da557610da4614214565b5b6020026020010181905250600185610dbd91906141e0565b945050505b8080610dcd90614243565b915050610aef565b508094505050505090565b600e5481565b6000600d54905090565b60606000610dfe60096128bc565b905060008060005b83811015610ea6573373ffffffffffffffffffffffffffffffffffffffff1660116000600184610e3691906141e0565b815260200190815260200160002060040160009054906101000a900473ffffffffffffffffffffffffffffffffffffffff1673ffffffffffffffffffffffffffffffffffffffff1603610e9357600183610e9091906141e0565b92505b8080610e9e90614243565b915050610e06565b5060008267ffffffffffffffff811115610ec357610ec2613b7d565b5b604051908082528060200260200182016040528015610efc57816020015b610ee961356e565b815260200190600190039081610ee15790505b50905060005b848110156111e8573373ffffffffffffffffffffffffffffffffffffffff1660116000600184610f3291906141e0565b815260200190815260200160002060040160009054906101000a900473ffffffffffffffffffffffffffffffffffffffff1673ffffffffffffffffffffffffffffffffffffffff16036111d5576000600182610f8e91906141e0565b905060006011600083815260200190815260200160002090508060405180610140016040529081600082015481526020016001820160009054906101000a900473ffffffffffffffffffffffffffffffffffffffff1673ffffffffffffffffffffffffffffffffffffffff1673ffffffffffffffffffffffffffffffffffffffff1681526020016002820160009054906101000a900473ffffffffffffffffffffffffffffffffffffffff1673ffffffffffffffffffffffffffffffffffffffff1673ffffffffffffffffffffffffffffffffffffffff1681526020016003820160009054906101000a900473ffffffffffffffffffffffffffffffffffffffff1673ffffffffffffffffffffffffffffffffffffffff1673ffffffffffffffffffffffffffffffffffffffff1681526020016004820160009054906101000a900473ffffffffffffffffffffffffffffffffffffffff1673ffffffffffffffffffffffffffffffffffffffff1673ffffffffffffffffffffffffffffffffffffffff168152602001600582015481526020016006820160009054906101000a900460ff16151515158152602001600782015481526020016008820160009054906101000a900473ffffffffffffffffffffffffffffffffffffffff1673ffffffffffffffffffffffffffffffffffffffff1673ffffffffffffffffffffffffffffffffffffffff1681526020016009820154815250508486815181106111b8576111b7614214565b5b60200260200101819052506001856111d091906141e0565b945050505b80806111e090614243565b915050610f02565b508094505050505090565b60105481565b61120a6112046127fb565b826128ca565b611249576040517f08c379a0000000000000000000000000000000000000000000000000000000008152600401611240906142fd565b60405180910390fd5b61125483838361295f565b505050565b61127483838360405180602001604052806000815250611f9a565b505050565b6060600061128760096128bc565b905060008060005b8381101561132f573373ffffffffffffffffffffffffffffffffffffffff16601160006001846112bf91906141e0565b815260200190815260200160002060030160009054906101000a900473ffffffffffffffffffffffffffffffffffffffff1673ffffffffffffffffffffffffffffffffffffffff160361131c5760018361131991906141e0565b92505b808061132790614243565b91505061128f565b5060008267ffffffffffffffff81111561134c5761134b613b7d565b5b60405190808252806020026020018201604052801561138557816020015b61137261356e565b81526020019060019003908161136a5790505b50905060005b84811015611671573373ffffffffffffffffffffffffffffffffffffffff16601160006001846113bb91906141e0565b815260200190815260200160002060030160009054906101000a900473ffffffffffffffffffffffffffffffffffffffff1673ffffffffffffffffffffffffffffffffffffffff160361165e57600060018261141791906141e0565b905060006011600083815260200190815260200160002090508060405180610140016040529081600082015481526020016001820160009054906101000a900473ffffffffffffffffffffffffffffffffffffffff1673ffffffffffffffffffffffffffffffffffffffff1673ffffffffffffffffffffffffffffffffffffffff1681526020016002820160009054906101000a900473ffffffffffffffffffffffffffffffffffffffff1673ffffffffffffffffffffffffffffffffffffffff1673ffffffffffffffffffffffffffffffffffffffff1681526020016003820160009054906101000a900473ffffffffffffffffffffffffffffffffffffffff1673ffffffffffffffffffffffffffffffffffffffff1673ffffffffffffffffffffffffffffffffffffffff1681526020016004820160009054906101000a900473ffffffffffffffffffffffffffffffffffffffff1673ffffffffffffffffffffffffffffffffffffffff1673ffffffffffffffffffffffffffffffffffffffff168152602001600582015481526020016006820160009054906101000a900460ff16151515158152602001600782015481526020016008820160009054906101000a900473ffffffffffffffffffffffffffffffffffffffff1673ffffffffffffffffffffffffffffffffffffffff1673ffffffffffffffffffffffffffffffffffffffff16815260200160098201548152505084868151811061164157611640614214565b5b602002602001018190525060018561165991906141e0565b945050505b808061166990614243565b91505061138b565b508094505050505090565b611684612bc5565b8060108190555050565b611696612bc5565b80600f8190555050565b6000806002600084815260200190815260200160002060009054906101000a900473ffffffffffffffffffffffffffffffffffffffff169050600073ffffffffffffffffffffffffffffffffffffffff168173ffffffffffffffffffffffffffffffffffffffff1603611748576040517f08c379a000000000000000000000000000000000000000000000000000000000815260040161173f90614369565b60405180910390fd5b80915050919050565b60008073ffffffffffffffffffffffffffffffffffffffff168273ffffffffffffffffffffffffffffffffffffffff16036117c1576040517f08c379a00000000000000000000000000000000000000000000000000000000081526004016117b8906143fb565b60405180910390fd5b600360008373ffffffffffffffffffffffffffffffffffffffff1673ffffffffffffffffffffffffffffffffffffffff168152602001908152602001600020549050919050565b611810612bc5565b61181a6000612c43565b565b6000600260075403611863576040517f08c379a000000000000000000000000000000000000000000000000000000000815260040161185a90614467565b60405180910390fd5b6002600781905550600d5434146118af576040517f08c379a00000000000000000000000000000000000000000000000000000000081526004016118a6906144f9565b60405180910390fd5b6118b96009612d09565b60006118c560096128bc565b90506118d13382612d1f565b6118db8185612ef8565b60006040518061014001604052808381526020013373ffffffffffffffffffffffffffffffffffffffff168152602001600073ffffffffffffffffffffffffffffffffffffffff1681526020013373ffffffffffffffffffffffffffffffffffffffff1681526020013073ffffffffffffffffffffffffffffffffffffffff16815260200185815260200160001515815260200160008152602001600073ffffffffffffffffffffffffffffffffffffffff16815260200142815250905080601160008481526020019081526020016000206000820151816000015560208201518160010160006101000a81548173ffffffffffffffffffffffffffffffffffffffff021916908373ffffffffffffffffffffffffffffffffffffffff16021790555060408201518160020160006101000a81548173ffffffffffffffffffffffffffffffffffffffff021916908373ffffffffffffffffffffffffffffffffffffffff16021790555060608201518160030160006101000a81548173ffffffffffffffffffffffffffffffffffffffff021916908373ffffffffffffffffffffffffffffffffffffffff16021790555060808201518160040160006101000a81548173ffffffffffffffffffffffffffffffffffffffff021916908373ffffffffffffffffffffffffffffffffffffffff16021790555060a0820151816005015560c08201518160060160006101000a81548160ff02191690831515021790555060e082015181600701556101008201518160080160006101000a81548173ffffffffffffffffffffffffffffffffffffffff021916908373ffffffffffffffffffffffffffffffffffffffff1602179055506101208201518160090155905050611b6833308461295f565b600c60009054906101000a900473ffffffffffffffffffffffffffffffffffffffff1673ffffffffffffffffffffffffffffffffffffffff1663a9059cbb336010546040518363ffffffff1660e01b8152600401611bc7929190614519565b6020604051808303816000875af1158015611be6573d6000803e3d6000fd5b505050506040513d601f19601f82011682018060405250810190611c0a9190614557565b503073ffffffffffffffffffffffffffffffffffffffff163373ffffffffffffffffffffffffffffffffffffffff16837fb728afaf8d513c4de9d7c3e932774aa94dc1ee9f3b8ee64d9f7a4db096a9d52f87600080600042604051611c739594939291906145bf565b60405180910390a48192505050600160078190555092915050565b600f5481565b6000600860009054906101000a900473ffffffffffffffffffffffffffffffffffffffff16905090565b606060018054611ccd90614028565b80601f0160208091040260200160405190810160405280929190818152602001828054611cf990614028565b8015611d465780601f10611d1b57610100808354040283529160200191611d46565b820191906000526020600020905b815481529060010190602001808311611d2957829003601f168201915b5050505050905090565b600260075403611d95576040517f08c379a0000000000000000000000000000000000000000000000000000000008152600401611d8c90614467565b60405180910390fd5b60026007819055506000601160008381526020019081526020016000209050600e548160090154611dc691906141e0565b421115611e08576040517f08c379a0000000000000000000000000000000000000000000000000000000008152600401611dff9061465e565b60405180910390fd5b80600701543411611e4e576040517f08c379a0000000000000000000000000000000000000000000000000000000008152600401611e45906146f0565b60405180910390fd5b600081600701541115611ecb578060080160009054906101000a900473ffffffffffffffffffffffffffffffffffffffff1673ffffffffffffffffffffffffffffffffffffffff166108fc82600701549081150290604051600060405180830381858888f19350505050158015611ec9573d6000803e3d6000fd5b505b348160070181905550338160080160006101000a81548173ffffffffffffffffffffffffffffffffffffffff021916908373ffffffffffffffffffffffffffffffffffffffff1602179055503373ffffffffffffffffffffffffffffffffffffffff16827f0e54eff26401bf69b81b26f60bd85ef47f5d85275c1d268d84f68d6897431c4734604051611f5e9190613ad8565b60405180910390a350600160078190555050565b611f84611f7d6127fb565b8383612f65565b5050565b611f90612bc5565b80600d8190555050565b611fab611fa56127fb565b836128ca565b611fea576040517f08c379a0000000000000000000000000000000000000000000000000000000008152600401611fe1906142fd565b60405180910390fd5b611ff6848484846130d1565b50505050565b600260075403612041576040517f08c379a000000000000000000000000000000000000000000000000000000000815260040161203890614467565b60405180910390fd5b60026007819055506000601160008381526020019081526020016000209050600e54816009015461207291906141e0565b4210156120b4576040517f08c379a00000000000000000000000000000000000000000000000000000000081526004016120ab9061475c565b60405180910390fd5b8060080160009054906101000a900473ffffffffffffffffffffffffffffffffffffffff1673ffffffffffffffffffffffffffffffffffffffff163373ffffffffffffffffffffffffffffffffffffffff1614612146576040517f08c379a000000000000000000000000000000000000000000000000000000000815260040161213d906147ee565b60405180910390fd5b60018160060160006101000a81548160ff0219169083151502179055508060030160009054906101000a900473ffffffffffffffffffffffffffffffffffffffff168160020160006101000a81548173ffffffffffffffffffffffffffffffffffffffff021916908373ffffffffffffffffffffffffffffffffffffffff160217905550338160040160006101000a81548173ffffffffffffffffffffffffffffffffffffffff021916908373ffffffffffffffffffffffffffffffffffffffff16021790555060008160030160006101000a81548173ffffffffffffffffffffffffffffffffffffffff021916908373ffffffffffffffffffffffffffffffffffffffff16021790555061225c30338461295f565b600061228a606461227c600f54856007015461312d90919063ffffffff16565b61314390919063ffffffff16565b90508160010160009054906101000a900473ffffffffffffffffffffffffffffffffffffffff1673ffffffffffffffffffffffffffffffffffffffff166108fc829081150290604051600060405180830381858888f193505050501580156122f6573d6000803e3d6000fd5b50600b60009054906101000a900473ffffffffffffffffffffffffffffffffffffffff1673ffffffffffffffffffffffffffffffffffffffff166108fc600d549081150290604051600060405180830381858888f19350505050158015612361573d6000803e3d6000fd5b508160020160009054906101000a900473ffffffffffffffffffffffffffffffffffffffff1673ffffffffffffffffffffffffffffffffffffffff166108fc6123b783856007015461315990919063ffffffff16565b9081150290604051600060405180830381858888f193505050501580156123e2573d6000803e3d6000fd5b505050600160078190555050565b600d5481565b6060612401826127b0565b600060066000848152602001908152602001600020805461242190614028565b80601f016020809104026020016040519081016040528092919081815260200182805461244d90614028565b801561249a5780601f1061246f5761010080835404028352916020019161249a565b820191906000526020600020905b81548152906001019060200180831161247d57829003601f168201915b5050505050905060006124ab61316f565b905060008151036124c0578192505050612503565b6000825111156124f55780826040516020016124dd92919061484a565b60405160208183030381529060405292505050612503565b6124fe84613186565b925050505b919050565b600c60009054906101000a900473ffffffffffffffffffffffffffffffffffffffff1681565b60116020528060005260406000206000915090508060000154908060010160009054906101000a900473ffffffffffffffffffffffffffffffffffffffff16908060020160009054906101000a900473ffffffffffffffffffffffffffffffffffffffff16908060030160009054906101000a900473ffffffffffffffffffffffffffffffffffffffff16908060040160009054906101000a900473ffffffffffffffffffffffffffffffffffffffff16908060050154908060060160009054906101000a900460ff16908060070154908060080160009054906101000a900473ffffffffffffffffffffffffffffffffffffffff1690806009015490508a565b6000600560008473ffffffffffffffffffffffffffffffffffffffff1673ffffffffffffffffffffffffffffffffffffffff16815260200190815260200160002060008373ffffffffffffffffffffffffffffffffffffffff1673ffffffffffffffffffffffffffffffffffffffff16815260200190815260200160002060009054906101000a900460ff16905092915050565b6126cb612bc5565b600073ffffffffffffffffffffffffffffffffffffffff168173ffffffffffffffffffffffffffffffffffffffff160361273a576040517f08c379a0000000000000000000000000000000000000000000000000000000008152600401612731906148e0565b60405180910390fd5b61274381612c43565b50565b60007f01ffc9a7000000000000000000000000000000000000000000000000000000007bffffffffffffffffffffffffffffffffffffffffffffffffffffffff1916827bffffffffffffffffffffffffffffffffffffffffffffffffffffffff1916149050919050565b6127b9816131ee565b6127f8576040517f08c379a00000000000000000000000000000000000000000000000000000000081526004016127ef90614369565b60405180910390fd5b50565b600033905090565b816004600083815260200190815260200160002060006101000a81548173ffffffffffffffffffffffffffffffffffffffff021916908373ffffffffffffffffffffffffffffffffffffffff160217905550808273ffffffffffffffffffffffffffffffffffffffff16612876836116a0565b73ffffffffffffffffffffffffffffffffffffffff167f8c5be1e5ebec7d5bd14f71427d1e84f3dd0314c0f7b2291e5b200ac8c7c3b92560405160405180910390a45050565b600081600001549050919050565b6000806128d6836116a0565b90508073ffffffffffffffffffffffffffffffffffffffff168473ffffffffffffffffffffffffffffffffffffffff1614806129185750612917818561262f565b5b8061295657508373ffffffffffffffffffffffffffffffffffffffff1661293e84610904565b73ffffffffffffffffffffffffffffffffffffffff16145b91505092915050565b8273ffffffffffffffffffffffffffffffffffffffff1661297f826116a0565b73ffffffffffffffffffffffffffffffffffffffff16146129d5576040517f08c379a00000000000000000000000000000000000000000000000000000000081526004016129cc90614972565b60405180910390fd5b600073ffffffffffffffffffffffffffffffffffffffff168273ffffffffffffffffffffffffffffffffffffffff1603612a44576040517f08c379a0000000000000000000000000000000000000000000000000000000008152600401612a3b90614a04565b60405180910390fd5b612a4f83838361325a565b612a5a600082612803565b6001600360008573ffffffffffffffffffffffffffffffffffffffff1673ffffffffffffffffffffffffffffffffffffffff1681526020019081526020016000206000828254612aaa91906141ac565b925050819055506001600360008473ffffffffffffffffffffffffffffffffffffffff1673ffffffffffffffffffffffffffffffffffffffff1681526020019081526020016000206000828254612b0191906141e0565b92505081905550816002600083815260200190815260200160002060006101000a81548173ffffffffffffffffffffffffffffffffffffffff021916908373ffffffffffffffffffffffffffffffffffffffff160217905550808273ffffffffffffffffffffffffffffffffffffffff168473ffffffffffffffffffffffffffffffffffffffff167fddf252ad1be2c89b69c2b068fc378daa952ba7f163c4a11628f55a4df523b3ef60405160405180910390a4612bc083838361325f565b505050565b612bcd6127fb565b73ffffffffffffffffffffffffffffffffffffffff16612beb611c94565b73ffffffffffffffffffffffffffffffffffffffff1614612c41576040517f08c379a0000000000000000000000000000000000000000000000000000000008152600401612c3890614a70565b60405180910390fd5b565b6000600860009054906101000a900473ffffffffffffffffffffffffffffffffffffffff16905081600860006101000a81548173ffffffffffffffffffffffffffffffffffffffff021916908373ffffffffffffffffffffffffffffffffffffffff1602179055508173ffffffffffffffffffffffffffffffffffffffff168173ffffffffffffffffffffffffffffffffffffffff167f8be0079c531659141344cd1fd0a4f28419497f9722a3daafe3b4186f6b6457e060405160405180910390a35050565b6001816000016000828254019250508190555050565b600073ffffffffffffffffffffffffffffffffffffffff168273ffffffffffffffffffffffffffffffffffffffff1603612d8e576040517f08c379a0000000000000000000000000000000000000000000000000000000008152600401612d8590614adc565b60405180910390fd5b612d97816131ee565b15612dd7576040517f08c379a0000000000000000000000000000000000000000000000000000000008152600401612dce90614b48565b60405180910390fd5b612de36000838361325a565b6001600360008473ffffffffffffffffffffffffffffffffffffffff1673ffffffffffffffffffffffffffffffffffffffff1681526020019081526020016000206000828254612e3391906141e0565b92505081905550816002600083815260200190815260200160002060006101000a81548173ffffffffffffffffffffffffffffffffffffffff021916908373ffffffffffffffffffffffffffffffffffffffff160217905550808273ffffffffffffffffffffffffffffffffffffffff16600073ffffffffffffffffffffffffffffffffffffffff167fddf252ad1be2c89b69c2b068fc378daa952ba7f163c4a11628f55a4df523b3ef60405160405180910390a4612ef46000838361325f565b5050565b612f01826131ee565b612f40576040517f08c379a0000000000000000000000000000000000000000000000000000000008152600401612f3790614bda565b60405180910390fd5b80600660008481526020019081526020016000209081612f609190614d9c565b505050565b8173ffffffffffffffffffffffffffffffffffffffff168373ffffffffffffffffffffffffffffffffffffffff1603612fd3576040517f08c379a0000000000000000000000000000000000000000000000000000000008152600401612fca90614eba565b60405180910390fd5b80600560008573ffffffffffffffffffffffffffffffffffffffff1673ffffffffffffffffffffffffffffffffffffffff16815260200190815260200160002060008473ffffffffffffffffffffffffffffffffffffffff1673ffffffffffffffffffffffffffffffffffffffff16815260200190815260200160002060006101000a81548160ff0219169083151502179055508173ffffffffffffffffffffffffffffffffffffffff168373ffffffffffffffffffffffffffffffffffffffff167f17307eab39ab6107e8899845ad3d59bd9653f200f220920489ca2b5937696c31836040516130c491906136e5565b60405180910390a3505050565b6130dc84848461295f565b6130e884848484613264565b613127576040517f08c379a000000000000000000000000000000000000000000000000000000000815260040161311e90614f4c565b60405180910390fd5b50505050565b6000818361313b9190614f6c565b905092915050565b600081836131519190614fdd565b905092915050565b6000818361316791906141ac565b905092915050565b606060405180602001604052806000815250905090565b6060613191826127b0565b600061319b61316f565b905060008151116131bb57604051806020016040528060008152506131e6565b806131c5846133eb565b6040516020016131d692919061484a565b6040516020818303038152906040525b915050919050565b60008073ffffffffffffffffffffffffffffffffffffffff166002600084815260200190815260200160002060009054906101000a900473ffffffffffffffffffffffffffffffffffffffff1673ffffffffffffffffffffffffffffffffffffffff1614159050919050565b505050565b505050565b60006132858473ffffffffffffffffffffffffffffffffffffffff1661354b565b156133de578373ffffffffffffffffffffffffffffffffffffffff1663150b7a026132ae6127fb565b8786866040518563ffffffff1660e01b81526004016132d09493929190615063565b6020604051808303816000875af192505050801561330c57506040513d601f19601f8201168201806040525081019061330991906150c4565b60015b61338e573d806000811461333c576040519150601f19603f3d011682016040523d82523d6000602084013e613341565b606091505b506000815103613386576040517f08c379a000000000000000000000000000000000000000000000000000000000815260040161337d90614f4c565b60405180910390fd5b805181602001fd5b63150b7a0260e01b7bffffffffffffffffffffffffffffffffffffffffffffffffffffffff1916817bffffffffffffffffffffffffffffffffffffffffffffffffffffffff1916149150506133e3565b600190505b949350505050565b606060008203613432576040518060400160405280600181526020017f30000000000000000000000000000000000000000000000000000000000000008152509050613546565b600082905060005b6000821461346457808061344d90614243565b915050600a8261345d9190614fdd565b915061343a565b60008167ffffffffffffffff8111156134805761347f613b7d565b5b6040519080825280601f01601f1916602001820160405280156134b25781602001600182028036833780820191505090505b5090505b6000851461353f576001826134cb91906141ac565b9150600a856134da91906150f1565b60306134e691906141e0565b60f81b8183815181106134fc576134fb614214565b5b60200101907effffffffffffffffffffffffffffffffffffffffffffffffffffffffffffff1916908160001a905350600a856135389190614fdd565b94506134b6565b8093505050505b919050565b6000808273ffffffffffffffffffffffffffffffffffffffff163b119050919050565b60405180610140016040528060008152602001600073ffffffffffffffffffffffffffffffffffffffff168152602001600073ffffffffffffffffffffffffffffffffffffffff168152602001600073ffffffffffffffffffffffffffffffffffffffff168152602001600073ffffffffffffffffffffffffffffffffffffffff1681526020016000815260200160001515815260200160008152602001600073ffffffffffffffffffffffffffffffffffffffff168152602001600081525090565b6000604051905090565b600080fd5b600080fd5b60007fffffffff0000000000000000000000000000000000000000000000000000000082169050919050565b61367a81613645565b811461368557600080fd5b50565b60008135905061369781613671565b92915050565b6000602082840312156136b3576136b261363b565b5b60006136c184828501613688565b91505092915050565b60008115159050919050565b6136df816136ca565b82525050565b60006020820190506136fa60008301846136d6565b92915050565b600081519050919050565b600082825260208201905092915050565b60005b8381101561373a57808201518184015260208101905061371f565b60008484015250505050565b6000601f19601f8301169050919050565b600061376282613700565b61376c818561370b565b935061377c81856020860161371c565b61378581613746565b840191505092915050565b600060208201905081810360008301526137aa8184613757565b905092915050565b6000819050919050565b6137c5816137b2565b81146137d057600080fd5b50565b6000813590506137e2816137bc565b92915050565b6000602082840312156137fe576137fd61363b565b5b600061380c848285016137d3565b91505092915050565b600073ffffffffffffffffffffffffffffffffffffffff82169050919050565b600061384082613815565b9050919050565b61385081613835565b82525050565b600060208201905061386b6000830184613847565b92915050565b61387a81613835565b811461388557600080fd5b50565b60008135905061389781613871565b92915050565b600080604083850312156138b4576138b361363b565b5b60006138c285828601613888565b92505060206138d3858286016137d3565b9150509250929050565b600081519050919050565b600082825260208201905092915050565b6000819050602082019050919050565b613912816137b2565b82525050565b600061392382613815565b9050919050565b61393381613918565b82525050565b613942816136ca565b82525050565b61395181613835565b82525050565b6101408201600082015161396e6000850182613909565b506020820151613981602085018261392a565b506040820151613994604085018261392a565b5060608201516139a7606085018261392a565b5060808201516139ba608085018261392a565b5060a08201516139cd60a0850182613909565b5060c08201516139e060c0850182613939565b5060e08201516139f360e0850182613909565b50610100820151613a08610100850182613948565b50610120820151613a1d610120850182613909565b50505050565b6000613a2f8383613957565b6101408301905092915050565b6000602082019050919050565b6000613a54826138dd565b613a5e81856138e8565b9350613a69836138f9565b8060005b83811015613a9a578151613a818882613a23565b9750613a8c83613a3c565b925050600181019050613a6d565b5085935050505092915050565b60006020820190508181036000830152613ac18184613a49565b905092915050565b613ad2816137b2565b82525050565b6000602082019050613aed6000830184613ac9565b92915050565b600080600060608486031215613b0c57613b0b61363b565b5b6000613b1a86828701613888565b9350506020613b2b86828701613888565b9250506040613b3c868287016137d3565b9150509250925092565b600060208284031215613b5c57613b5b61363b565b5b6000613b6a84828501613888565b91505092915050565b600080fd5b600080fd5b7f4e487b7100000000000000000000000000000000000000000000000000000000600052604160045260246000fd5b613bb582613746565b810181811067ffffffffffffffff82111715613bd457613bd3613b7d565b5b80604052505050565b6000613be7613631565b9050613bf38282613bac565b919050565b600067ffffffffffffffff821115613c1357613c12613b7d565b5b613c1c82613746565b9050602081019050919050565b82818337600083830152505050565b6000613c4b613c4684613bf8565b613bdd565b905082815260208101848484011115613c6757613c66613b78565b5b613c72848285613c29565b509392505050565b600082601f830112613c8f57613c8e613b73565b5b8135613c9f848260208601613c38565b91505092915050565b60008060408385031215613cbf57613cbe61363b565b5b600083013567ffffffffffffffff811115613cdd57613cdc613640565b5b613ce985828601613c7a565b9250506020613cfa858286016137d3565b9150509250929050565b613d0d816136ca565b8114613d1857600080fd5b50565b600081359050613d2a81613d04565b92915050565b60008060408385031215613d4757613d4661363b565b5b6000613d5585828601613888565b9250506020613d6685828601613d1b565b9150509250929050565b600067ffffffffffffffff821115613d8b57613d8a613b7d565b5b613d9482613746565b9050602081019050919050565b6000613db4613daf84613d70565b613bdd565b905082815260208101848484011115613dd057613dcf613b78565b5b613ddb848285613c29565b509392505050565b600082601f830112613df857613df7613b73565b5b8135613e08848260208601613da1565b91505092915050565b60008060008060808587031215613e2b57613e2a61363b565b5b6000613e3987828801613888565b9450506020613e4a87828801613888565b9350506040613e5b878288016137d3565b925050606085013567ffffffffffffffff811115613e7c57613e7b613640565b5b613e8887828801613de3565b91505092959194509250565b6000819050919050565b6000613eb9613eb4613eaf84613815565b613e94565b613815565b9050919050565b6000613ecb82613e9e565b9050919050565b6000613edd82613ec0565b9050919050565b613eed81613ed2565b82525050565b6000602082019050613f086000830184613ee4565b92915050565b613f1781613918565b82525050565b600061014082019050613f33600083018d613ac9565b613f40602083018c613f0e565b613f4d604083018b613f0e565b613f5a606083018a613f0e565b613f676080830189613f0e565b613f7460a0830188613ac9565b613f8160c08301876136d6565b613f8e60e0830186613ac9565b613f9c610100830185613847565b613faa610120830184613ac9565b9b9a5050505050505050505050565b60008060408385031215613fd057613fcf61363b565b5b6000613fde85828601613888565b9250506020613fef85828601613888565b9150509250929050565b7f4e487b7100000000000000000000000000000000000000000000000000000000600052602260045260246000fd5b6000600282049050600182168061404057607f821691505b60208210810361405357614052613ff9565b5b50919050565b7f4552433732313a20617070726f76616c20746f2063757272656e74206f776e6560008201527f7200000000000000000000000000000000000000000000000000000000000000602082015250565b60006140b560218361370b565b91506140c082614059565b604082019050919050565b600060208201905081810360008301526140e4816140a8565b9050919050565b7f4552433732313a20617070726f76652063616c6c6572206973206e6f7420746f60008201527f6b656e206f776e6572206e6f7220617070726f76656420666f7220616c6c0000602082015250565b6000614147603e8361370b565b9150614152826140eb565b604082019050919050565b600060208201905081810360008301526141768161413a565b9050919050565b7f4e487b7100000000000000000000000000000000000000000000000000000000600052601160045260246000fd5b60006141b7826137b2565b91506141c2836137b2565b92508282039050818111156141da576141d961417d565b5b92915050565b60006141eb826137b2565b91506141f6836137b2565b925082820190508082111561420e5761420d61417d565b5b92915050565b7f4e487b7100000000000000000000000000000000000000000000000000000000600052603260045260246000fd5b600061424e826137b2565b91507fffffffffffffffffffffffffffffffffffffffffffffffffffffffffffffffff82036142805761427f61417d565b5b600182019050919050565b7f4552433732313a2063616c6c6572206973206e6f7420746f6b656e206f776e6560008201527f72206e6f7220617070726f766564000000000000000000000000000000000000602082015250565b60006142e7602e8361370b565b91506142f28261428b565b604082019050919050565b60006020820190508181036000830152614316816142da565b9050919050565b7f4552433732313a20696e76616c696420746f6b656e2049440000000000000000600082015250565b600061435360188361370b565b915061435e8261431d565b602082019050919050565b6000602082019050818103600083015261438281614346565b9050919050565b7f4552433732313a2061646472657373207a65726f206973206e6f74206120766160008201527f6c6964206f776e65720000000000000000000000000000000000000000000000602082015250565b60006143e560298361370b565b91506143f082614389565b604082019050919050565b60006020820190508181036000830152614414816143d8565b9050919050565b7f5265656e7472616e637947756172643a207265656e7472616e742063616c6c00600082015250565b6000614451601f8361370b565b915061445c8261441b565b602082019050919050565b6000602082019050818103600083015261448081614444565b9050919050565b7f5072696365206d7573742062652073616d65206173206c697374696e6720707260008201527f6963650000000000000000000000000000000000000000000000000000000000602082015250565b60006144e360238361370b565b91506144ee82614487565b604082019050919050565b60006020820190508181036000830152614512816144d6565b9050919050565b600060408201905061452e6000830185613847565b61453b6020830184613ac9565b9392505050565b60008151905061455181613d04565b92915050565b60006020828403121561456d5761456c61363b565b5b600061457b84828501614542565b91505092915050565b6000819050919050565b60006145a96145a461459f84614584565b613e94565b6137b2565b9050919050565b6145b98161458e565b82525050565b600060a0820190506145d46000830188613ac9565b6145e160208301876136d6565b6145ee60408301866145b0565b6145fb6060830185613847565b6146086080830184613ac9565b9695505050505050565b7f5468652061756374696f6e2074696d65206973206f7665720000000000000000600082015250565b600061464860188361370b565b915061465382614612565b602082019050919050565b600060208201905081810360008301526146778161463b565b9050919050565b7f546865726520616c7265616479206973206120686967686572206f722065717560008201527f616c206269640000000000000000000000000000000000000000000000000000602082015250565b60006146da60268361370b565b91506146e58261467e565b604082019050919050565b60006020820190508181036000830152614709816146cd565b9050919050565b7f41756374696f6e2074696d65206973206e6f74206f7665722079657400000000600082015250565b6000614746601c8361370b565b915061475182614710565b602082019050919050565b6000602082019050818103600083015261477581614739565b9050919050565b7f4f6e6c79207468652068696768657374206269646465722063616e206275792060008201527f74686520746f6b656e0000000000000000000000000000000000000000000000602082015250565b60006147d860298361370b565b91506147e38261477c565b604082019050919050565b60006020820190508181036000830152614807816147cb565b9050919050565b600081905092915050565b600061482482613700565b61482e818561480e565b935061483e81856020860161371c565b80840191505092915050565b60006148568285614819565b91506148628284614819565b91508190509392505050565b7f4f776e61626c653a206e6577206f776e657220697320746865207a65726f206160008201527f6464726573730000000000000000000000000000000000000000000000000000602082015250565b60006148ca60268361370b565b91506148d58261486e565b604082019050919050565b600060208201905081810360008301526148f9816148bd565b9050919050565b7f4552433732313a207472616e736665722066726f6d20696e636f72726563742060008201527f6f776e6572000000000000000000000000000000000000000000000000000000602082015250565b600061495c60258361370b565b915061496782614900565b604082019050919050565b6000602082019050818103600083015261498b8161494f565b9050919050565b7f4552433732313a207472616e7366657220746f20746865207a65726f2061646460008201527f7265737300000000000000000000000000000000000000000000000000000000602082015250565b60006149ee60248361370b565b91506149f982614992565b604082019050919050565b60006020820190508181036000830152614a1d816149e1565b9050919050565b7f4f776e61626c653a2063616c6c6572206973206e6f7420746865206f776e6572600082015250565b6000614a5a60208361370b565b9150614a6582614a24565b602082019050919050565b60006020820190508181036000830152614a8981614a4d565b9050919050565b7f4552433732313a206d696e7420746f20746865207a65726f2061646472657373600082015250565b6000614ac660208361370b565b9150614ad182614a90565b602082019050919050565b60006020820190508181036000830152614af581614ab9565b9050919050565b7f4552433732313a20746f6b656e20616c7265616479206d696e74656400000000600082015250565b6000614b32601c8361370b565b9150614b3d82614afc565b602082019050919050565b60006020820190508181036000830152614b6181614b25565b9050919050565b7f45524337323155524953746f726167653a2055524920736574206f66206e6f6e60008201527f6578697374656e7420746f6b656e000000000000000000000000000000000000602082015250565b6000614bc4602e8361370b565b9150614bcf82614b68565b604082019050919050565b60006020820190508181036000830152614bf381614bb7565b9050919050565b60008190508160005260206000209050919050565b60006020601f8301049050919050565b600082821b905092915050565b600060088302614c5c7fffffffffffffffffffffffffffffffffffffffffffffffffffffffffffffffff82614c1f565b614c668683614c1f565b95508019841693508086168417925050509392505050565b6000614c99614c94614c8f846137b2565b613e94565b6137b2565b9050919050565b6000819050919050565b614cb383614c7e565b614cc7614cbf82614ca0565b848454614c2c565b825550505050565b600090565b614cdc614ccf565b614ce7818484614caa565b505050565b5b81811015614d0b57614d00600082614cd4565b600181019050614ced565b5050565b601f821115614d5057614d2181614bfa565b614d2a84614c0f565b81016020851015614d39578190505b614d4d614d4585614c0f565b830182614cec565b50505b505050565b600082821c905092915050565b6000614d7360001984600802614d55565b1980831691505092915050565b6000614d8c8383614d62565b9150826002028217905092915050565b614da582613700565b67ffffffffffffffff811115614dbe57614dbd613b7d565b5b614dc88254614028565b614dd3828285614d0f565b600060209050601f831160018114614e065760008415614df4578287015190505b614dfe8582614d80565b865550614e66565b601f198416614e1486614bfa565b60005b82811015614e3c57848901518255600182019150602085019450602081019050614e17565b86831015614e595784890151614e55601f891682614d62565b8355505b6001600288020188555050505b505050505050565b7f4552433732313a20617070726f766520746f2063616c6c657200000000000000600082015250565b6000614ea460198361370b565b9150614eaf82614e6e565b602082019050919050565b60006020820190508181036000830152614ed381614e97565b9050919050565b7f4552433732313a207472616e7366657220746f206e6f6e20455243373231526560008201527f63656976657220696d706c656d656e7465720000000000000000000000000000602082015250565b6000614f3660328361370b565b9150614f4182614eda565b604082019050919050565b60006020820190508181036000830152614f6581614f29565b9050919050565b6000614f77826137b2565b9150614f82836137b2565b9250828202614f90816137b2565b91508282048414831517614fa757614fa661417d565b5b5092915050565b7f4e487b7100000000000000000000000000000000000000000000000000000000600052601260045260246000fd5b6000614fe8826137b2565b9150614ff3836137b2565b92508261500357615002614fae565b5b828204905092915050565b600081519050919050565b600082825260208201905092915050565b60006150358261500e565b61503f8185615019565b935061504f81856020860161371c565b61505881613746565b840191505092915050565b60006080820190506150786000830187613847565b6150856020830186613847565b6150926040830185613ac9565b81810360608301526150a4818461502a565b905095945050505050565b6000815190506150be81613671565b92915050565b6000602082840312156150da576150d961363b565b5b60006150e8848285016150af565b91505092915050565b60006150fc826137b2565b9150615107836137b2565b92508261511757615116614fae565b5b82820690509291505056fea264697066735822122020b6c0429c4a7fdfb13e75a1b9de5082ff2abf7d8775955d191938309271a01864736f6c63430008110033",
  "linkReferences": {},
  "deployedLinkReferences": {}
}